:100000000C9472000C9494000C9494000C94940042
:100010000C9494000C9494000C9494000C94940010
:100020000C9494000C9494000C9494000C942B2544
:100030000C9494000C9494000C9494000C949400F0
:100040000C9494000C9494000C9494000C949400E0
:100050000C9401260C9494000C9494000C9494003D
:100060000C9494000C94852A0C945C2A0C949400B3
:100070000C9494000C9494000C9494000C949400B0
:100080000C9494000C9494000C9494000C949400A0
:100090000C9494000C9494000C9494000C94940090
:1000A0000C9494000C9494000C9494000C94940080
:1000B0000C9494000C9494000C9494000C94940070
:1000C0000C9494000C9494000C9494000C94D92AF1
:1000D0000C94B02A0C9494000C942D2B0C94042BAB
:1000E0000C94940011241FBECFEFD1E2DEBFCDBF30
:1000F00000E00CBF13E0A0E0B2E0E2E1F9E600E0CE
:100100000BBF02C007900D92A035B107D9F71BBEF7
:1001100019E0A0E5B3E001C01D92A734B107E1F7F3
:100120000E94012F0C9487340C9400000F931F93AE
:10013000CF93DF9310923A0480E090E0ADE7B0E017
:100140008093680390936903A0936A03B0936B0351
:1001500080E090E0AAEFB0E08093360490933704FB
:10016000A0933804B093390400EE10E020E030E0B2
:1001700000936C0310936D0320936E0330936F0311
:1001800044E150E060E070E04093940350939503A5
:1001900060939603709397038CE390E0A0E0B0E047
:1001A0008093BC039093BD03A093BE03B093BF03A1
:1001B00000937003109371032093720330937303C1
:1001C000409398035093990360939A0370939B0311
:1001D0008093C0039093C103A093C203B093C30361
:1001E00040939C0350939D0360939E0370939F03E1
:1001F0008093C4039093C503A093C603B093C70331
:1002000080E892E0A0E0B0E08093740390937503DF
:10021000A0937603B0937703E8E7F3E0EF01A896A5
:10022000A8ECB3E0119211921192119219921992C5
:10023000199219921D921D921D921D9283E0E4392C
:10024000F80781F780E89CE0A0E0B0E080937803B5
:1002500090937903A0937A03B0937B0380E891E0B5
:10026000A0E0B0E08093C8039093C903A093CA03B1
:10027000B093CB0380E09CE3A0E0B0E080938403E4
:1002800090938503A0938603B093870380E094E660
:10029000A0E0B0E08093D4039093D503A093D6035D
:1002A000B093D703E4EEF3E01192119284E0EC30C6
:1002B000F807D1F784E090E09093E5038093E4039E
:1002C00080E290E09093F1038093F0039093F50324
:1002D0008093F403109231041092300480E090E097
:1002E000A1E0B0E08093240490932504A093260419
:1002F000B093270410920C0410920D0410920E0477
:1003000010920F04109218041092190410921A04FB
:1003100010921B041092330410923204809328042C
:1003200090932904A0932A04B0932B0410921004F4
:1003300010921104109212041092130410921C04D3
:1003400010921D0410921E0410921F041092350486
:100350001092340480932C0490932D04A0932E04C7
:10036000B0932F04109214041092150410921604E6
:10037000109217041092200410922104109222046B
:1003800010922304DF91CF911F910F91089566235E
:10039000C1F060911405709115058091160590913A
:1003A00017050E944826DC01CB019C0125583340EB
:1003B00044E02D37340788F49093030580930205B9
:1003C0000CC00E949D26DC01CB0180931405909304
:1003D0001505A0931605B09317050E949D26DC0114
:1003E000CB018093F7049093F804A093F904B093A1
:1003F000FA0408956623C1F060911C0570911D05F3
:1004000080911E0590911F050E944826DC01CB01BA
:100410009C012558334044E02D37340788F49093ED
:1004200007058093060508950E949D26DC01CB01F7
:1004300080931C0590931D05A0931E05B0931F0586
:1004400008956623C1F06091180570911905809197
:100450001A0590911B050E944826DC01CB019C01E6
:100460002558334044E02D37340788F49093050530
:100470008093040508950E949D26DC01CB018093A2
:10048000180590931905A0931A05B0931B050895BC
:100490006623C1F0609110057091110580911205DD
:1004A000909113050E944826DC01CB019C01255840
:1004B000334044E02D37340788F49093010580934E
:1004C000000508950E949D26DC01CB018093100554
:1004D00090931105A0931205B09313050895662318
:1004E000C1F060910C0570910D0580910E05909101
:1004F0000F050E944826DC01CB019C0125583340A2
:1005000044E02D37340788F49093FF048093FE0471
:1005100008950E949D26DC01CB0180930C059093E9
:100520000D05A0930E05B0930F0508956623C1F045
:10053000609108057091090580910A0590910B055D
:100540000E944826DC01CB019C012558334044E041
:100550002D37340788F49093FD048093FC040895AC
:100560000E949D26DC01CB0180930805909309052C
:10057000A0930A05B0930B0508951092970410926A
:1005800098041092990410929A0410929B0410926D
:100590009C0410929D0410929E0410929F0410924D
:1005A000A0041092A1041092A2041092A704109229
:1005B000A8041092A9041092AA041092AB041092FD
:1005C000AC041092AD041092AE0480E094EDAEEF56
:1005D000BFEF8093A3049093A404A093A504B093C9
:1005E000A60480EA60E00E94842380EA67EC71E060
:1005F0000E94AB2581EA60E00E94842381EA66E9DB
:1006000072E00E94AB2582EA60E00E94842382EAC5
:100610006FE672E00E94AB2583EA60E00E948423CB
:1006200083EA68E472E00E94AB2584EA60E00E94FD
:10063000842384EA61E272E00E94AB2585EA60E0EF
:100640000E94842385EA6AEF71E00E94AB25089539
:10065000AF92BF92CF92DF92EF92FF920F931F93D0
:10066000CF93DF93C0E0D0E0FE01EE0FFF1FE45018
:10067000FB4F608171817E01EE0CFF1CEE0CFF1CB4
:1006800080E090E023E830E040E050E00E94DC337E
:10069000AB01BC0144595F4F6240704000914B0474
:1006A00010914C0420914D0430914E04C70189569D
:1006B0009B4FC12CD12CECE3EE2EF12CF8E0AF2EA9
:1006C000B12C0E94E82B2196C630D10569F6DF9146
:1006D000CF911F910F91FF90EF90DF90CF90BF903F
:1006E000AF90089580E040E052EC61E070E00E943D
:1006F000D92783E040E052EC61E070E00E94D92706
:1007000083E060E072E00E94A1290895CF93DF9317
:10071000D82FC62F0E945E29ED2FFF27E7FDF09509
:10072000E05EFA4F80818C278083DF91CF9108951E
:10073000DF92EF92FF920F931F93CF93DF93D82E08
:100740007B0100E010E0C42FDD27C7FDD09508C075
:10075000F70161917F018D2D0E9486030F5F1F4F6E
:100760000C171D07ACF3DF91CF911F910F91FF90F4
:10077000EF90DF900895CF93DF930F920F92CDB754
:10078000DEB77A836983BE016F5F7F4F42E00E94CC
:1007900098030F900F90DF91CF910895CF93DF933F
:1007A00000D00F92CDB7DEB749835A836B837C8329
:1007B000BE016F5F7F4F44E00E9498030F900F903F
:1007C0000F900F90DF91CF910895CF93DF93C82FB3
:1007D000D62F64E20E945E298C2F6DE40E945E2970
:1007E0008C2F6EE30E945E298C2F6D2F0E945E2954
:1007F000EC2FFF27E7FDF095DF01A05EBA4FDC93F9
:10080000E65DFA4F8C2F60810E948603DF91CF91C5
:100810000895CF93C82F64E20E945E298C2F6DE467
:100820000E945E298C2F61E20E945E298C2F60E07D
:100830000E945E29EC2FFF27E7FDF095DF01A05E07
:10084000BA4F1C92E65DFA4F8C2F60810E9486039E
:10085000CF9108954F925F926F927F92AF92BF9225
:10086000DF92EF92FF920F931F93CF93DF9300D00D
:1008700000D0CDB7DEB7D82EFB01A82EBB24A7FC35
:10088000B094D501A65DBA4F8C918436D1F48D2DEC
:1008900067E00E94E5038D2D6AE00E9486038D2D9E
:1008A00063E00E9486038D2D60E00E94860304E0D1
:1008B00010E08D2D60E00E94860301501040C9F7C2
:1008C0001DC4893691F58D2D60E10E94E503F7E99D
:1008D000EF2EF4E0FF2E00E010E01A8219820630BD
:1008E000110594F4D7016D917D918D919C9124EF28
:1008F00031E040E050E00E94DC33DC01CB01CD016F
:1009000084529A4F9A8389838D2DBE016F5F7F4FEA
:1009100042E00E9498030F5F1F4FE4E0F0E0EE0E0C
:10092000FF1E08301105C9F6E9C38C3609F046C030
:100930008D2D66E00E94E50360918B0470918C041C
:1009400080918D0490918E042AE030E040E050E0E8
:100950000E94DC33DC01CB01BA83A9838D2DBE015B
:100960006F5F7F4F42E00E94980360918F04709107
:10097000900480919104909192042AE030E040E04C
:1009800050E00E94DC33DC01CB01BA83A9838D2DBA
:10099000BE016F5F7F4F42E00E94980380919304F5
:1009A00090919404A0919504B0919604BA83A98380
:1009B0008D2DBE016F5F7F4F42E026C08D3639F529
:1009C0008D2D64E00E94E50360916B0470916C04CE
:1009D00080916D0490916E0429E130E040E050E098
:1009E0000E94DC33DC01CB01EEE0B595A79597952D
:1009F0008795EA95D1F78B839C83AD83BE838D2D3C
:100A0000BE016D5F7F4F44E00E94980377C38E3C28
:100A100041F48091CB04882309F068C30E9410132D
:100A200065C38D3C41F48091CB04882309F05EC3FB
:100A30000E943F0B5BC3863609F057C08D2D62E1E3
:100A40000E94E5030BE514E0F80181919191A191D9
:100A5000B1918F01892F9A2FAB2FBB27A7FDBA9594
:100A60009A8389838D2DBE016F5F7F4F42E00E9484
:100A70009803F4E007361F0739F708511040F801D2
:100A800081919191A191B1918F013EE0B595A7958A
:100A9000979587953A95D1F79A8389838D2DBE01D5
:100AA0006F5F7F4F42E00E949803F4E00B351F0711
:100AB00031F70FEA14E0F80181919191A191B19180
:100AC0008F01892F9A2FAB2FBB27A7FDBA959A8349
:100AD00089838D2DBE016F5F7F4F42E00E94980396
:100AE000F4E00B3B1F0739F709C3853689F58D2DD7
:100AF0006AE00E94E50340914B0450914C046091E0
:100B00004D0470914E04DB01CA01E4E0880F991F87
:100B1000AA1FBB1FEA95D1F7841B950BA60BB70B39
:100B2000492F5A2F6B2F772767FD7A958D2DBA01A4
:100B30000E94BB038D2D60E070E00E94BB038D2DF1
:100B400060E070E00E94BB038D2D63EC74E05BCF2E
:100B5000883611F58D2D60E10E94E5034BEBE42E04
:100B600044E0F42E00E010E00430110534F4D70125
:100B70006D917C9111978D2D03C08D2D60E070E0FB
:100B80000E94BB030F5F1F4FE2E0F0E0EE0EFF1E7E
:100B90000830110549F7B2C2803709F09BC08D2D8E
:100BA0006EE10E94E50334E9E32E33E0F32E00E02A
:100BB00010E00230110581F44091740350917503E7
:100BC000609176037091770325E075956795579549
:100BD00047952A95D1F733C00330110581F4409130
:100BE00078035091790360917A0370917B0396E0CA
:100BF00075956795579547959A95D1F720C006301A
:100C0000110581F44091840350918503609186031E
:100C10007091870389E075956795579547958A95F3
:100C2000D1F70DC0F701B89740815181628173817E
:100C3000B3E07595679557954795BA95D1F78D2D82
:100C4000642F0E948603D7016C91E4E0F0E0EE0E81
:100C5000FF1E8D2D0E9486030630110579F4409108
:100C6000D4035091D5036091D6037091D703452FDB
:100C7000562F672F772767FD7A9521C0033011051E
:100C800081F44091C8035091C9036091CA037091E7
:100C9000CB03F6E07595679557954795FA95D1F78B
:100CA0000EC0D70194964D915D916D917C9197976F
:100CB000E2E07595679557954795EA95D1F78D2DA3
:100CC000642F0E9486030F5F1F4F0A30110509F041
:100CD00070CF14C28A3C09F0B5C06F5F7F4F04E942
:100CE00013E020E030E022303105A1F4808190E073
:100CF000A0E0B0E045E0880F991FAA1FBB1F4A95EE
:100D0000D1F78093740390937503A0937603B09307
:100D1000770343C023303105A1F4808190E0A0E047
:100D2000B0E056E0880F991FAA1FBB1F5A95D1F754
:100D30008093780390937903A0937A03B0937B0315
:100D40002CC026303105A1F4808190E0A0E0B0E015
:100D500049E0880F991FAA1FBB1F4A95D1F78093BE
:100D6000840390938503A0938603B093870315C0F3
:100D7000A801485250408081482E5524662477248B
:100D8000A3E0440C551C661C771CAA95D1F7DA0128
:100D90004D925D926D927C921397DB018C91482E5F
:100DA000552466247724D8014D925D926D927D92F0
:100DB0008D01DB0111968C9111972630310581F45C
:100DC00090E0A0E0B0E0BA2FA92F982F8827809359
:100DD000D4039093D503A093D603B093D70328C030
:100DE0002330310599F490E0A0E0B0E046E0880FB0
:100DF000991FAA1FBB1F4A95D1F78093C8039093F0
:100E0000C903A093CA03B093CB0312C0482E552444
:100E10006624772492E0440C551C661C771C9A9536
:100E2000D1F7D80194964D925D926D927C929797EE
:100E30002F5F3F4F33966D5F7F4F2A30310509F0AA
:100E400052CF54C18E3FD1F48D2D68E00E94E5034E
:100E50000BE314E0F80181919191A191B1918F017F
:100E60009A8389838D2DBE016F5F7F4F42E00E9480
:100E70009803F4E00B341F0769F740C18437A9F4E5
:100E800083E1E82E82E0F82ED7010D900020E9F7EB
:100E90008D01015010400E191F098D2D602F0E94E9
:100EA000E5038D2DB701402FAFCD8B3C49F4A4EE67
:100EB000B3E081918D9383E0AC3FB807D1F71EC1B9
:100EC000813749F48D2D68E10E94E5038D2D64EE94
:100ED00073E048E199CD803D39F48D2D60E00E94AA
:100EE000E5030E9496000AC18A3F61F48D2D60E0FF
:100EF0000E94E5038091CB04882309F0FFC00E9483
:100F0000571AFCC08A3609F05EC08D2D6EE00E9433
:100F1000E5038D2D60E00E9486038D2D6091CC0449
:100F20000E9486036091DD047091DE048091DF04ED
:100F30009091E0042AE532E642E050E00E94A12BC5
:100F4000AB01BC018D2D0E94CE036091E104709134
:100F5000E2048091E3049091E4042AE532E642E061
:100F600050E00E94A12BAB01BC018D2D0E94CE034D
:100F70004091E5045091E6046091E7047091E80423
:100F8000AB01772757FD7095672F8D2DBA010E9411
:100F9000BB036091E9047091EA048091EB049091A5
:100FA000EC0424E630E040E050E00E94DC33AB018A
:100FB000BC01AB01772757FD7095672F8D2DBA01C6
:100FC0000E94BB039BC08B3639F58D2D65E00E94D6
:100FD000E5034091ED045091EE046091EF047091AF
:100FE000F004AB01772757FD7095672F8D2DBA015F
:100FF0000E94BB034091F1045091F2046091F3040C
:101000007091F404AB01772757FD7095672F8D2DF4
:10101000BA010E94BB033DC08F3609F03FC08D2D41
:1010200067E00E94E5038D2D60E00E9486038D2D10
:1010300060E00E948603409136045091370460912D
:10104000380470913904E3E1759567955795479594
:10105000EA95D1F78D2D642F0E9486034091680395
:101060005091690360916A0370916B03F2E1759589
:10107000679557954795FA95D1F78D2D642F0E9466
:1010800086038D2D60E00E9486038D2D60E00E9416
:1010900086038D2D60E00E94860330C08C3C59F59C
:1010A000828190E0A0E0B0E023E1880F991FAA1FA1
:1010B000BB1F2A95D1F78093360490933704A093F1
:1010C0003804B0933904838190E0A0E0B0E032E1CD
:1010D000880F991FAA1FBB1F3A95D1F78093680309
:1010E00090936903A0936A03B0936B038D2D60E026
:1010F0000E94E50303C08D2D0E940904F501E05E06
:10110000FA4F8D2D60810E945E2926960FB6F894C5
:10111000DEBF0FBECDBFDF91CF911F910F91FF902A
:10112000EF90DF90BF90AF907F906F905F904F9067
:1011300008954F925F926F927F928F929F92AF929B
:10114000BF92CF92DF92EF92FF920F931F93CF93B4
:10115000DF93CDB7DEB7C154D0400FB6F894DEBFF1
:101160000FBECDBFF82E992787FD90958C01015DAC
:101170001A4FAAE24A2EA5E05A2E480E591EB0E296
:10118000CB2EB5E0DB2EC80ED91E25E0622E35E24F
:10119000A32E35E0B32EA80EB91E44E0E42E53E092
:1011A000952E62E0862E7724739468C0D8018C91C6
:1011B0008530B9F5F501808190E0821793070CF036
:1011C0005DC0AC014F5F5F4F8F2DBE016F5F7F4FE2
:1011D0000E940A2AD5018C9190E0FE01319620E010
:1011E00030E007C04191D6015C9145274C932F5FB9
:1011F0003F4F28173907B4F3E1E0F0E0EC0FFD1F93
:101200008E0F9F1FD6012C91FC018081281731F48D
:101210008F2DBE016F5F7F4F0E942A04D8011C9260
:101220002DC08F2D0E94E629F8019081992321F489
:10123000843221F5708222C0913021F48D3441F442
:1012400080821CC0923039F48C3311F4908216C025
:10125000F801108213C0933039F4D5018C93F60154
:101260008083D801EC920AC0943041F4F20180836B
:10127000D6019C9198279C93F80160828F2D0E9443
:10128000CA299C01009709F091CFCF5BDF4F0FB6C1
:10129000F894DEBF0FBECDBFDF91CF911F910F91AC
:1012A000FF90EF90DF90CF90BF90AF909F908F9086
:1012B0007F906F905F904F90089580E00E94990812
:1012C00083E00E9499080895282FCB01322F307FA8
:1012D0002F7043E0880F991F4A95E1F7303379F476
:1012E000213019F40E9433230895223019F40E940A
:1012F00038230895233099F40E943D230895303413
:1013000071F4213019F40E9475230895223019F4E4
:101310000E947A230895233011F40E947F230895B8
:10132000CF93DF93EC0183E3BE010E94640981E364
:10133000BE010E94640981E4BE010E94640982E347
:10134000BE010E946409DF91CF9108958AE068EAA6
:1013500041E02FEF3FE30E9400238AE068EA41E08A
:101360002FEF3FE30E94422383E461E00E94842345
:1013700084E461E00E94842383E761E00E94842387
:1013800085E461E00E94842388EE93E00E94900946
:101390000895CF93DF93C82FD62FCA01B9012091AA
:1013A000CB04222319F128EE33E040E050E00E9404
:1013B000DC33DC01CB01BD0168517C4F84E06B3232
:1013C0007807BCF087E0613D780714F060ED77E0C6
:1013D000EC2FF0E0EE0FFF1FE554FB4F60837183AD
:1013E0008D2F0E946409DF91CF91089568EE73E01C
:1013F000EFCF6BE274E0ECCF64E670E080E090E069
:101400000E94A02688E66EE340E80E945F2765E020
:1014100070E080E090E00E94A02688E666E148E166
:101420000E945F2765E070E080E090E00E94A026C7
:1014300088E66EE343E00E945F2764E670E080E0A8
:1014400090E00E94A0260895CF93DF9300D000D0B3
:10145000CDB7DEB788E66DE1AE014F5F5F4F26E0A6
:101460000E9498279B8180E06C8170E0682B792B2B
:10147000882777FD8095982F2FEC31E140E050E0F0
:101480000E94DC33DC01CB0180934F049093500425
:10149000A0935104B0935204998180E06A8170E076
:1014A000682B792B709561957F4F882777FD809504
:1014B000982F0E94DC33DC01CB018093530490937E
:1014C0005404A0935504B09356049D8180E06E812E
:1014D00070E0682B792B709561957F4F882777FD99
:1014E0008095982F0E94DC33DC01CB018093570458
:1014F00090935804A0935904B0935A0426960FB6BB
:10150000F894DEBF0FBECDBFDF91CF9108956AE0A2
:1015100070E080E090E00E94A02680E46DE040E171
:101520000E945F2765E070E080E090E00E94A026C6
:1015300080E460E20E947927482F4F70406180E488
:1015400060E20E945F2765E070E080E090E00E942A
:10155000A02680E460E30E947927482F4C7F80E436
:1015600060E30E945F2765E070E080E090E00E9409
:10157000A02680E465E30E947927482F417F4A60D6
:1015800080E465E30E945F2765E070E080E090E022
:101590000E94A0260895CF93DF9300D000D0CDB74E
:1015A000DEB780E462E0AE014F5F5F4F26E00E944D
:1015B00098273A8120E0898190E0822B932B9595A2
:1015C000879595958795909581959F4FAA2797FD2B
:1015D000A095BA2F76E0880F991FAA1FBB1F7A9596
:1015E000D1F780935B0490935C04A0935D04B09367
:1015F0005E043C8120E08B8190E0822B932B9595BB
:10160000879595958795909581959F4FAA2797FDEA
:10161000A095BA2FF6E0880F991FAA1FBB1FFA9555
:10162000D1F780935F0490936004A0936104B0931A
:1016300062043E8120E08D8190E0822B932B959572
:10164000879595958795AA2797FDA095BA2F76E05F
:10165000880F991FAA1FBB1F7A95D1F78093630447
:1016600090936404A0936504B093660426960FB625
:10167000F894DEBF0FBECDBFDF91CF9108958F925A
:101680009F92AF92BF92CF92DF92EF92FF920F9311
:101690001F93CF93DF9310920C0410920D041092BD
:1016A0000E0410920F041092180410921904109254
:1016B0001A0410921B04109210041092110410923C
:1016C00012041092130410921C0410921D04109224
:1016D0001E0410921F04109214041092150410920C
:1016E00016041092170410922004109221041092F4
:1016F00022041092230460E8E62EF12C0E94240AB2
:101700000E94CB0A8091630490916404A0916504C7
:10171000B091660480509040A140B0408093630433
:1017200090936404A0936504B0936604CCE0D4E085
:101730002FE434E04CE0842E912C8C0E9D1E5CE056
:10174000A52EB12CA20EB31E8E01CC24DD24D9010E
:101750004D915D916D917D919D01F8018081918107
:10176000A281B381840F951FA61FB71F8193919308
:10177000A193B1938F01D5014D915D916D917D91B3
:101780005D01F40180819181A281B381840F951F55
:10179000A61FB71F81939193A193B1934F01089412
:1017A000C11CD11CF3E0CF16D10489F66AE070E0C9
:1017B00080E090E00E94A0260894E108F108E1147E
:1017C000F10409F09BCF80E8C82ED12CE12CF12C3C
:1017D000688179818A819B81A70196010E943034BA
:1017E00089019A0130952095109501951F4F2F4F33
:1017F0003F4F0993199329933993688579858A8591
:101800009B85A70196010E94303489019A01309589
:101810002095109501951F4F2F4F3F4F088719872F
:101820002A873B8784E0C831D80791F6DF91CF91B2
:101830001F910F91FF90EF90DF90CF90BF90AF90EE
:101840009F908F90089580913A04882311F40E940C
:101850003F0B10927304109274041092750410924E
:101860007604109277041092780410927904109202
:101870007A0480E090E0A1E0B0E080937B04909354
:101880007C04A0937D04B0937E0480937F049093A6
:101890008004A0938104B093820410928304109278
:1018A000840410928504109286041092870410928A
:1018B00088041092890410928A04809167049091A0
:1018C0006804A0916904B0916A0480936B049093BA
:1018D0006C04A0936D04B0936E04809334059093D0
:1018E0003505A0933605B093370510926F0410921A
:1018F0007004109271041092720408952F923F9216
:101900004F925F926F927F928F929F92AF92BF920F
:10191000CF92DF92EF92FF920F931F93CF93DF93BB
:10192000CDB7DEB760970FB6F894DEBF0FBECDBF60
:101930000E94240A0E94CB0AAFE44A2EA4E05A2E49
:101940002CE034E0BCE02B2E312C240C351C1CE0A8
:10195000812E912C820E931E8101CC24DD24D9018D
:101960004D915D916D917D919D01F20180819181FB
:10197000A281B381840F951FA61FB71F81939193F6
:10198000A193B1932F01D4014D915D916D917D9102
:101990004D01F80180819181A281B381840F951F4F
:1019A000A61FB71F81939193A193B1938F010894C0
:1019B000C11CD11CF3E0CF16D10489F660914B0411
:1019C00070914C0480914D0490914E0428E734E0CE
:1019D00040E050E00E94A12B6B017C0160914F041C
:1019E000709150048091510490915204A701960186
:1019F0000E94A12B6D877E878F87988B60915304FF
:101A0000709154048091550490915604A701960159
:101A10000E94A12B2B013C01609157047091580446
:101A20008091590490915A04A70196010E94A12B1C
:101A30004B015C0183E794E04D855E856F85788975
:101A400093018201750164010E9421228FE794E0D5
:101A50004D855E856F857889930182010E942122E0
:101A600020915B0430915C0440915D0450915E04D0
:101A7000CA01B9010E94A12B6B017C0120915F0476
:101A8000309160044091610450916204CA01B9012F
:101A90000E94A12BDC01CB01C80ED91EEA1EFB1E41
:101AA0002091630430916404409165045091660470
:101AB000CA01B9010E94A12BDC01CB018C0D9D1D37
:101AC000AE1DBF1D8756964EA040B040823323E323
:101AD000920720E0A20720E0B20760F581E0809342
:101AE000F60488249924D1014D915D916D917D91E9
:101AF0001D01C401880F991F880F991F00914B0485
:101B000010914C0420914D0430914E048D589B4F00
:101B1000C12CE0E8DE2EE12CF12CF8E0AF2EB12C48
:101B20000E94E82B0894811C911CB3E08B16910451
:101B3000D1F602C01092F6048091380590913905D3
:101B4000A0913A05B0913B0540914B0450914C0453
:101B500060914D0470914E04840F951FA61FB71F0E
:101B60008093380590933905A0933A05B0933B05CF
:101B70000E941614882309F442C08FEA94E063E7B8
:101B800074E0AE014F5F5F4F0E94D7202E01089492
:101B9000411C511C88249924F20141915191619179
:101BA00071912F01C401880F991F880F991F00910F
:101BB00038051091390520913A0530913B05012FE8
:101BC000122F232F332727FD3A9581589B4FC12C85
:101BD000B0E8DB2EE12CF12CAA24BB240E94E82BD8
:101BE0000894811C911CF3E08F169104A9F61092C1
:101BF00038051092390510923A0510923B058091F4
:101C00003C0590913D05A0913E05B0913F05409166
:101C10004B0450914C0460914D0470914E04840F1C
:101C2000951FA61FB71F80933C0590933D05A09379
:101C30003E05B0933F058BE594E063E774E00E94B6
:101C4000DD2160507040814090402CEC3CEC49E03C
:101C500050E00E94A12BC0906F04D0907004E090DF
:101C60007104F0907204672F782F892F992787FDD0
:101C70009A9520914B0430914C0440914D04509121
:101C80004E040E94A12BDC01CB018C0D9D1DAE1DCD
:101C9000BF1D80936F0490937004A0937104B09360
:101CA0007204C0906B04D0906C04E0906D04F090CE
:101CB0006E04692F7A2F8B2F992787FD9A95209193
:101CC0004B0430914C0440914D0450914E040E94BD
:101CD000A12BDC01CB018C0D9D1DAE1DBF1D809382
:101CE0006B0490936C04A0936D04B0936E040E94F7
:101CF000FB11882309F494C0409067045090680455
:101D00006090690470906A04809134059091350563
:101D1000A0913605B0913705481A590A6A0A7B0A1C
:101D2000C301B2010E943D2CDC01CB01803020E0D8
:101D3000920724E1A20720E0B2070CF071C04091A5
:101D40006704509168046091690470916A0400917D
:101D50003C0510913D0520913E0530913F05012F36
:101D6000122F232F332727FD3A958BE694E0C12CC1
:101D7000F0E4DF2EE12CF12CAA24BB240E94E82BF6
:101D800080913C0590913D05A0913E05B0913F05A5
:101D9000692F7A2F8B2F992787FD9A9520E030E8BD
:101DA00040E050E00E94A12BAB01BC0180E090E03C
:101DB000A1E0B0E0841B950BA60BB70B20916F043C
:101DC000309170044091710450917204BC01CD01B6
:101DD0000E94A12BDC01CB01840D951DA61DB71D12
:101DE00080936F0490937004A0937104B093720475
:101DF0008091670490916804A0916904B0916A048D
:101E00008093340590933505A0933605B09337053C
:101E100010923C0510923D0510923E0510923F0530
:101E200060917304709174048091750490917604AC
:101E300020917B0430917C0440917D0450917E047C
:101E40000E94F72C60938B0470938C0480938D0414
:101E500090938E040E943D2CDC01CB018130E0E0A8
:101E60009E07EDE2AE07E0E0BE070CF488C060918B
:101E70008B0470918C0480918D0490918E040E944B
:101E80003D2CDC01CB018030F0E09F07F7E8AF0785
:101E9000F0E0BF070CF073C0C0907704D0907804D6
:101EA000E0907904F0907A04609173047091740466
:101EB00080917504909176040E943D2C9B01AC01A9
:101EC000C701B6010E94F72CDC01CB0180938F047F
:101ED00090939004A0939104B093920420917F0476
:101EE00030918004409181045091820480917B0460
:101EF00090917C04A0917D04B0917E04181619067F
:101F00001A061B063CF050954095309521953F4FA1
:101F10004F4F5F4F609183047091840480918504DA
:101F2000909186040E94F72CDC01CB0186569646E0
:101F3000AD40B0408093930490939404A093950493
:101F4000B093960483E994E00E94752B60960FB6D7
:101F5000F894DEBF0FBECDBFDF91CF911F910F91DF
:101F6000FF90EF90DF90CF90BF90AF909F908F90B9
:101F70007F906F905F904F903F902F900895609169
:101F80007704709178048091790490917A0420917B
:101F90007B0430917C0440917D0450917E0492CF6B
:101FA00087E76AEA46E455E026E10E949827A7E41D
:101FB000B5E0FD01319780819C9190838C9332969E
:101FC000129685E0EC35F807B1F7089510924105B7
:101FD0001092400587E764EF4EE20E945F270E945F
:101FE0009D26DC01CB018093420590934305A0938D
:101FF0004405B0934505089587E764EF44EF0E94D8
:102000005F270E949D26DC01CB01809342059093BF
:102010004305A0934405B09345050895CF93DF93FE
:102020000F920F92CDB7DEB787E766EFAE014F5F35
:102030005F4F22E00E949827398120E08A8190E05A
:10204000822B932B90934105809340050F900F9026
:10205000DF91CF9108954F925F926F927F928F920E
:102060009F92AF92BF92CF92DF92EF92FF920F9327
:102070001F93CF93DF93CDB7DEB72B970FB6F894AE
:10208000DEBF0FBECDBF87E766EFAE014F5F5F4F8C
:1020900023E00E9498278B818C838A818D8389819C
:1020A0008E831F82609140057091410580E090E031
:1020B000009150051091510520E030E0601B710B3C
:1020C000820B930B20914E0530914F0540E050E07C
:1020D0000E94DC334B015C01EFE0B594A794979428
:1020E0008794EA95D1F76091580570915905882732
:1020F00077FD8095982FFBE0660F771F881F991F4B
:10210000FA95D1F720915A0530915B05442737FDA8
:102110004095542F280D391D4A1D5B1D0E943034F7
:1021200069017A01C80CD91CEA1CFB1C80E690EFFF
:10213000AFEFBFEFC80ED91EEA1EFB1EC701B601E6
:10214000A70196010E94DC33DC01CB01ECE0B595E0
:10215000A79597958795EA95D1F788879987AA8754
:10216000BB874090460550904705662457FC609415
:10217000762CF2E0440C551C661C771CFA95D1F7BE
:102180006091540570915505882777FD8095982FAB
:10219000288539854A855B850E94DC334B015C01CB
:1021A000ABE0B594A79497948794AA95D1F76091E2
:1021B000480570914905882777FD8095982FA701DC
:1021C00096010E94DC33DC01CB01EBE0B595A795CD
:1021D00097958795EA95D1F7880E991EAA1EBB1E82
:1021E000480C591C6A1C7B1C60914A0570914B0578
:1021F000882777FD8095982F0E94DC336B017C0146
:10220000FDE0F594E794D794C794FA95D1F76091DF
:10221000520570915305882777FD8095982F288562
:1022200039854A855B850E94DC33DC01CB01CD0119
:10223000BB2797FDB095AB2FC80ED91EEA1EFB1E1B
:1022400082E090E0A0E0B0E0C80ED91EEA1EFB1EBE
:10225000F2E0F594E794D794C794FA95D1F780E02B
:1022600090E8A0E0B0E0C80ED91EEA1EFB1E209147
:102270004C0530914D0540E050E0C701B6010E9489
:10228000DC334B015C01AFE0B694A794979487943C
:10229000AA95D1F7CC80DD80EE80FF80B5E0F69482
:1022A000E794D794C794BA95D1F7E3E0440C551C52
:1022B000661C771CEA95D1F782E090E0A0E0B0E0E0
:1022C000480E591E6A1E7B1EC301B20124E030E095
:1022D00040E050E00E943034C21AD30AE40AF50A02
:1022E000C701B6012AE638E140E050E00E94DC3345
:1022F00097FD0BC0660F771F881F991FA5019401DA
:102300000E940E3449015A010AC0A50194010E949D
:102310000E3449015A01880C991CAA1CBB1C552774
:10232000B7FC5A954B2D3A2D292DCA01B9010E94AF
:10233000DC332EED3BE040E050E00E94DC336C01EA
:10234000FF24D7FCF094EF2CC501B40123E433EE55
:102350004FEF5FEF0E94DC33DC01CB01CD01BB27E7
:1023600097FDB095AB2FC80ED91EEA1EFB1E8FEC51
:102370009EE0A0E0B0E0C80ED91EEA1EFB1E14E0ED
:10238000F594E794D794C7941A95D1F7C80CD91C43
:10239000EA1CFB1CC701B6012BEE32EE46E35AE104
:1023A0000E94A12BAB01BC0180E090E0AFE6B8E257
:1023B000841B950BA60BB70B80936704909368045E
:1023C000A0936904B0936A042B960FB6F894DEBF0D
:1023D0000FBECDBFDF91CF911F910F91FF90EF9076
:1023E000DF90CF90BF90AF909F908F907F906F9035
:1023F0005F904F9008952091400530914105609184
:102400004205709143058091440590914505211541
:10241000310589F40E944826DC01CB01893823E18B
:10242000920720E0A20720E0B207B8F00E940E1049
:102430000E94FC0F12C00E944826DC01CB018139AA
:1024400025E6920720E0A20720E0B20740F00E94B4
:102450002B100E94E60F81E0089580E0089580E04F
:10246000089510926B0410926C0410926D041092F7
:102470006E040E94D00F0E94E60F0E94FB11882379
:10248000E1F30895CF92DF92EF92FF92CF93DF9323
:102490008091C3049091C404A091C504B091C60476
:1024A0008093C7049093C804A093C904B093CA044E
:1024B0008091A7049091A804A091A904B091AA04C6
:1024C00080302CE992072FEFA2072FEFB2075CF0C4
:1024D000813024E6920720E0A20720E0B20734F022
:1024E000E4E0F0E005C0E1E0F0E002C0E2E0F0E0AE
:1024F0008091AB049091AC04A091AD04B091AE0476
:1025000080302CE992072FEFA2072FEFB20714F4C7
:10251000E8600BC0813024E6920720E0A20720E0AB
:10252000B20714F0E06201C0E061C4EED3E040E025
:1025300050E0BA0120E030E081E0C82ED12CE12C3F
:10254000F12C899199918E239F23009771F0D701E7
:10255000C601022E04C0880F991FAA1FBB1F0A9430
:10256000D2F7482B592B6A2B7B2B2F5F3F4F2C30F8
:10257000310539F74093C3045093C4046093C504F4
:102580007093C604DF91CF91FF90EF90DF90CF90D2
:1025900008950F931F93CF93DF9300D000D0CDB752
:1025A000DEB78C018EE163E0AE014F5F5F4F26E046
:1025B0000E9498273D8120E08E8190E0822B932B12
:1025C000F80191838083398120E08A8190E0822B19
:1025D000932B909581959F4F938382833B8120E03D
:1025E0008C8190E0822B932B909581959F4F9583C2
:1025F00084830E949D26DC01CB0180935C0590932F
:102600005D05A0935E05B0935F0526960FB6F8941E
:10261000DEBF0FBECDBFDF91CF911F910F91089507
:102620002F923F924F925F926F927F928F929F92E2
:10263000AF92BF92CF92DF92EF92FF920F931F93D0
:10264000CF93DF93CDB7DEB762970FB6F894DEBFB6
:102650000FBECDBF86E0FE013D96DF01282F1D9203
:102660002A95E9F7FE013796DF011D928A95E9F771
:1026700060915C0570915D0580915E0590915F05AC
:102680000E944826DC01CB018037E1E19E07E1E0B2
:10269000AE07E0E0BE0760F38E010F5F1F4FC80179
:1026A0000E94C9120E949D264B015C01E7E0EE2EBC
:1026B000F12CEC0EFD1E37C060915C0570915D053C
:1026C00080915E0590915F050E944826DC01CB0158
:1026D0008037F1E19F07F1E0AF07F0E0BF0760F35B
:1026E000C8010E94C912A801BE01635F7F4FD701D4
:1026F000FA0121913191AF01FB018081918128176D
:10270000390714F4318320838D919C91119782179E
:1027100093071CF411963C932E936E5F7F4F129695
:102720004E155F0529F7C501B4010E944826DC015A
:10273000CB018038F3EC9F07F9ECAF07F1E0BF075E
:1027400008F4BACF8E01035F1F4F87E0C82ED12C4B
:10275000CC0EDD1E90E3E92E94E0F92E24EF622EDC
:102760002FEF722E6E0C7F1C33E1232E312C2C0E9A
:102770003D1E42E0442E512C812C912C58EEA52E6A
:1027800053E0B52ED801ED91FD918D01D6012D912B
:102790003D916D01CF01820F931FB2010E94FB3367
:1027A000D7016D937D937D012E1B3F0B442737FD91
:1027B0004095542FC501B4010E943034F301219398
:1027C0003193419351933F0102151305D9F6629657
:1027D0000FB6F894DEBF0FBECDBFDF91CF911F9132
:1027E0000F91FF90EF90DF90CF90BF90AF909F90B0
:1027F0008F907F906F905F904F903F902F900895B3
:1028000064E670E080E090E00E94A0268EE160E047
:1028100040E70E945F278EE161E040E20E945F276F
:102820008EE162E040E00E945F2708954F925F9240
:102830006F927F928F929F92AF92BF92CF92DF92D0
:10284000EF92FF920F931F93CF93DF9300D000D0AE
:10285000CDB7DEB760915C0570915D0580915E0536
:1028600090915F050E944826DC01CB01803721E171
:10287000920721E0A20720E0B20708F448C0CE0189
:1028800001960E94C9128E010F5F1F4F50E3A52EC3
:1028900054E0B52E64EF862E6FEF962E8A0C9B1CAB
:1028A0007FEA672E74E0772EE7E04E2E512C4C0E17
:1028B0005D1EF801819191918F01F5012191319176
:1028C0005F01F401C190D190E190F1904F01821B22
:1028D000930BAA2797FDA095BA2F47E0880F991F61
:1028E000AA1FBB1F4A95D1F7BC01CD01A7019601D4
:1028F0000E94A12BDC01CB01F30181939193A19361
:10290000B1933F0104151505A1F681E001C080E0F7
:1029100026960FB6F894DEBF0FBECDBFDF91CF91E4
:102920001F910F91FF90EF90DF90CF90BF90AF90ED
:102930009F908F907F906F905F904F900895CF926F
:10294000DF92EF92FF920F931F93CF93DF938C014F
:102950008091CB04882331F4613009F0E2C20E94F7
:10296000571ADFC2E0917C05F0917D05623009F0D5
:102970005AC0EE0FFF1FEE0FFF1FEC56FC4F809169
:10298000640590916505A0916605B0916705808307
:102990009183A283B3838091940390919503A09136
:1029A0009603B091970380939C0390939D03A0930B
:1029B0009E03B0939F038091BC039091BD03A091AF
:1029C000BE03B091BF038093C4039093C503A0934B
:1029D000C603B093C70360916C0370916D0380913F
:1029E0006E0390916F0320E030E043E050E00E94DE
:1029F000A12BDC01CB018093740390937503A0930A
:102A00007603B093770381E090E020917C053091CC
:102A10007D052115310511F080E090E090937D0552
:102A200080937C057EC26130E9F4EE0FFF1FEE0F4C
:102A3000FF1FEC56FC4F80819181A281B38180936E
:102A4000640590936505A0936605B09367051082B1
:102A500011821282138260938B0210927E05109273
:102A60007F0506C280917E0520917F05882309F0AD
:102A7000D4C0EE0FFF1FEE0FFF1FE65CFB4FDF0120
:102A8000AF5ABF4F8D919D910D90BC91A02D2223E7
:102A900069F0181619061A061B060CF0E9C185899B
:102AA0009689A789B08DB7FFE3C10CC0B7FFE0C11D
:102AB00085899689A789B08D181619061A061B06EE
:102AC0000CF0D6C130918B0280917C0590917D05F0
:102AD00040916C0550916D0560916E0570916F0588
:102AE000332309F060C0FC01EE0FFF1FEE0FFF1F44
:102AF000E557FB4F80819181A281B381841B950BA7
:102B0000A60BB70B8093740590937505A09376057B
:102B1000B0937705222379F4B095A095909581958F
:102B20009F4FAF4FBF4F8093740590937505A0934F
:102B30007605B0937705C0907405D0907505E09048
:102B40007605F09077056091640570916505809138
:102B500066059091670520E0C21620E8D20622E0C3
:102B6000E20620E0F2062CF42CEC3CE041E050E0E0
:102B700004C023E333EF40E050E00E94A12BDC01CE
:102B8000CB018093640590936505A0936605B0938F
:102B9000670581E080938B0290917F05911180E021
:102BA00080937F0565C140936805509369056093E4
:102BB0006A0570936B05FC01EE0FFF1FEE0FFF1F00
:102BC000E557FB4F408151816281738140937405C9
:102BD0005093750560937605709377054093700563
:102BE00050937105609372057093730521E02093F3
:102BF0007E05109278051092790510927A05109250
:102C00007B05FC01EE0FFF1FEE0FFF1FEC56FC4F84
:102C100010821182128213822BC1809170059091D3
:102C20007105A0917205B0917305EE0FFF1FEE0FB5
:102C3000FF1FE557FB4F4081518162817381222341
:102C400031F0481759076A077B0734F01BC0841717
:102C50009507A607B707B4F4E0917C05F0917D05D0
:102C6000EE0FFF1FEE0FFF1FE557FB4F8081918195
:102C7000A281B3818093700590937105A093720532
:102C8000B09373058091780590917905A0917A05AC
:102C9000B0917B0540914B0450914C0460914D04E0
:102CA00070914E04840F951FA61FB71F809378055F
:102CB00090937905A0937A05B0937B05813030E03D
:102CC000930730E4A30730E0B3070CF4D1C022230C
:102CD00009F045C08091740590917505A091760525
:102CE000B0917705B095A095909581959F4FAF4F86
:102CF000BF4F8093740590937505A0937605B093AC
:102D000077058091700590917105A0917205B09141
:102D10007305B095A095909581959F4FAF4FBF4F8C
:102D20008093700590937105A0937205B09373051D
:102D30008091680590916905A0916A05B0916B0535
:102D4000B095A095909581959F4FAF4FBF4F8093C1
:102D5000680590936905A0936A05B0936B05C090D0
:102D60007405D0907505E0907605F0907705809118
:102D7000700590917105A0917205B0917305A7013E
:102D80009601281B390B4A0B5B0BDA01C9014091F4
:102D900068055091690560916A0570916B052091F5
:102DA0007C0530917D05E901CC0FDD1FCC0FDD1FC7
:102DB0004C155D056E057F0574F4813040E0940785
:102DC00045E0A40740E0B4071CF0C459DC4F0DC037
:102DD000C454DC4F15C0813050E0950755E0A5077D
:102DE00050E0B5075CF0C454DC4F688179818A817A
:102DF0009B8123E333EF40E050E00AC0C459DC4F2D
:102E0000688179818A819B812CEC3CE041E050E033
:102E10000E94A12BDC01CB0188839983AA83BB8309
:102E200081E090917F05911180E080937F05109261
:102E30007E0580918B028F5F80938B028330C1F47B
:102E400010928B02E0917C05F0917D05EE0FFF1F43
:102E5000EE0FFF1FEC56FC4F8091640590916505C5
:102E6000A0916605B091670580839183A283B383A7
:102E700080917F05E0917C05F0917D05EE0FFF1FAD
:102E8000EE0FFF1FE956FB4F882389F060817181A7
:102E90008281938124E130E040E050E00E94DC3305
:102EA000DC01CB0180509040AC4EBF4F10C0608120
:102EB00071818281938124E130E040E050E00E9402
:102EC000DC33DC01CB0180509040A441B0408093C2
:102ED0006C0590936D05A0936E05B0936F05A0915E
:102EE0007C05B0917D05AA0FBB1FAA0FBB1FF8017F
:102EF000EA0FFB1FA557BB4F40916C0550916D0524
:102F000060916E0570916F058D919D910D90BC91B2
:102F1000A02D481B590B6A0B7B0B408351836283A6
:102F20007383DF91CF911F910F91FF90EF90DF900E
:102F3000CF9008958091930490919404A09195046A
:102F4000B09196048093880590938905A0938A0593
:102F5000B0938B05609168037091690380916A0357
:102F600090916B0320E030E042E050E00E94A12B02
:102F7000DC01CB018093840590938505A0938605A1
:102F8000B0938705609136047091370480913804BE
:102F90009091390420E030E042E050E00E94A12B03
:102FA000DC01CB018093800590938105A09382057D
:102FB000B093830508952F923F924F925F926F9244
:102FC0007F928F929F92AF92BF92CF92DF92EF92B9
:102FD000FF920F931F93CF93DF93CDB7DEB7289760
:102FE0000FB6F894DEBF0FBECDBF1C018091C304A5
:102FF0009091C404A091C504B091C60491FF06C08D
:10300000C12CD12C90E5E92EF12C05C0C12CD12C7E
:103010008DE2E82EF12C60919704709198048091D4
:10302000990490919A04A70196010E94A12B6983AB
:103030007A838B839C8380918B0490918C04A091E4
:103040008D04B0918E0429813A814B815C81281BCB
:10305000390B4A0B5B0B29833A834B835C8360916A
:103060009B0470919C0480919D0490919E04A70103
:1030700096010E94A12B6D837E838F839887809118
:103080008F0490919004A0919104B09192042D81AD
:103090003E814F815885281B390B4A0B5B0B2D83D2
:1030A0003E834F8358878091C3049091C404A091BC
:1030B000C504B091C60490FF11C0409084055090A3
:1030C00085056090860570908705C0908005D0903A
:1030D0008105E0908205F090830510C04090680360
:1030E0005090690360906A0370906B03C09036043F
:1030F000D0903704E0903804F09039046091970440
:10310000709198048091990490919A04A701960176
:103110000E94A12B00914F04109150042091510462
:1031200030915204601B710B820B930B20914B0466
:1031300030914C0440914D0450914E040E94A12BBB
:10314000DC01CB01F10180839183A283B383609181
:103150009B0470919C0480919D0490919E04A70112
:1031600096010E94A12B00915304109154042091C8
:10317000550430915604601B710B820B930B209108
:103180004B0430914C0440914D0450914E040E94E8
:10319000A12BDC01CB01F10184839583A683B78346
:1031A00040915704509158046091590470915A0409
:1031B00000914B0410914C0420914D0430914E0429
:1031C000689414F835952795179507951694D1F7B7
:1031D0008CE895E00F2EF0E0CF2EF0E0DF2EFCE340
:1031E000EF2EF0E0FF2EF02D0F2EF3E0AF2EBB24DC
:1031F000F02D0E94E82B60919F047091A0048091B3
:10320000A1049091A204A30192010E94A12B00911C
:103210008C0510918D0520918E0530918F05601BD6
:10322000710B820B930B20914B0430914C04409115
:103230004D0450914E040E94A12BDC01CB01F10101
:1032400080879187A287B3878091C30483FF6FC073
:103250008091C70483FD10C08091930490919404E1
:10326000A0919504B0919604809388059093890568
:10327000A0938A05B0938B0580917B0490917C0488
:10328000A0917D04B0917E044091930450919404E8
:103290006091950470919604181619061A061B067B
:1032A000F4F58091A3049091A404A091A504B09199
:1032B000A6048B32F4E09F07F0E0AF07F0E0BF0711
:1032C00074F580919F049091A004A091A104B09105
:1032D000A204813020EE92072FEFA2072FEFB20752
:1032E000F4F0803030E2930730E0A30730E0B3071A
:1032F000B4F48091880590918905A0918A05B091D8
:103300008B05841B950BA60BB70BF101808791876A
:10331000A287B387C10108960E94752B08C040930D
:1033200088055093890560938A0570938B05809179
:10333000C30487FD60C086FF55C0809197049091BB
:103340009804A0919904B0919A04B7FF07C0B09572
:10335000A095909581959F4FAF4FBF4F40919B0493
:1033600050919C0460919D0470919E0477FF0FC062
:10337000CC24DD247601C41AD50AE60AF70AC81659
:10338000D906EA06FB0664F46C017D0109C06C01F4
:103390007D0184179507A607B70714F46A017B011E
:1033A00080917B0490917C04A0917D04B0917E0477
:1033B000B7FD21C0F1E0CF16F0E0DF06F1E0EF0647
:1033C000F0E0FF062CF0C12CD12C31E0E32EF12CE3
:1033D000812C912C21E0A22EB12C8C189D08AE08D6
:1033E000BF0811C0812C912C91E0A92EB12CCC24C6
:1033F000DD24760108C0882499245401C12CD12CE5
:1034000081E0E82EF12CF10160817181828193814C
:10341000A70196010E94A12B2B013C0169817A81B1
:103420008B819C81A50194010E94A12BDC01CB0121
:10343000840D951DA61DB71DF10180839183A28384
:10344000B3836481758186819781A70196010E946B
:10345000A12B6B017C016D817E818F819885A501F7
:1034600094010E94A12BDC01CB018C0D9D1DAE1D92
:10347000BF1DF10184839583A683B78328960FB679
:10348000F894DEBF0FBECDBFDF91CF911F910F919A
:10349000FF90EF90DF90CF90BF90AF909F908F9074
:1034A0007F906F905F904F903F902F900895CF93B3
:1034B000DF9300D00F92CDB7DEB789E390E39C8312
:1034C0008B8382ED90E09A838983CE01039660E03E
:1034D00070E042E050E00E946F34CE01019662E05D
:1034E00070E042E050E00E946F3449815A8188E6E2
:1034F00093E064E070E00E946F340F900F900F90A3
:103500000F90DF91CF910895CF93DF9300D00F926A
:10351000CDB7DEB71C821B821A821982CE010396B8
:1035200060E070E042E050E00E945F348B819C815B
:1035300020E389339207E1F4CE01019662E070E066
:1035400042E050E00E945F3489819A81833D910579
:1035500020F082ED90E09A83898349815A8188E640
:1035600093E064E070E00E945F3481E080933A046D
:103570000F900F900F900F90DF91CF91089582E000
:1035800040E052EC61E070E00E94D9271092CC0438
:103590000895813410F087530895805308958F92D1
:1035A0009F92AF92BF92CF92DF92EF92FF920F93D2
:1035B0001F93CF93DF938C01FC01C0E0D0E001C0EA
:1035C0002196819180538A30D8F32297C00FD11F62
:1035D000CE010E94042E4B015C011882C8010E949A
:1035E000042E6B017C01C501B40121E131E141E010
:1035F00050E00E94A12BDC01CB01E6E0CC0CDD1CED
:10360000EE1CFF1CEA95D1F7C80ED91EEA1EFB1E60
:10361000B601C701DF91CF911F910F91FF90EF90FD
:10362000DF90CF90BF90AF909F908F900895CF93F1
:10363000DF93D1E017C182E00E94E629C82F8432CF
:1036400049F41092990510929805109296051092DF
:10365000970508C18C3219F08A3209F0D2C0E09186
:103660009805F0E0E656FA4F10828091990588237C
:1036700061F580919A05873409F0B5C080919B056A
:10368000803509F0B0C080919C05873469F4809141
:103690009D05873409F0A7C080919E05813409F00B
:1036A000A2C0D09397059FC0823509F09CC080913D
:1036B0009D058D3409F097C080919E05833409F0F3
:1036C00092C082E0809397058EC0909197059130CB
:1036D00009F071C0823001F18330E1F420919A0544
:1036E0008091900590919105A0919205B0919305DC
:1036F000233539F4B095A095909581959F4FAF4FA4
:10370000BF4F8093DD049093DE04A093DF04B09359
:10371000E00469C0843079F48AE995E00E94CF1A08
:10372000DC01CB018093900590939105A0939205C5
:10373000B093930558C08530E1F420919A058091AB
:10374000900590919105A0919205B0919305273530
:1037500039F4B095A095909581959F4FAF4FBF4F8D
:103760008093E1049093E204A093E304B093E40413
:103770003AC0863031F480919A0580538093940545
:1037800032C0873039F48AE995E00E94C02D6093F9
:10379000CC0429C0893039F58AE995E00E94042ECD
:1037A000DC01CB018093E5049093E604A093E70449
:1037B000B093E80418C09230B1F48730A1F48AE9DC
:1037C00095E00E94042E23EB33E840E050E00E9495
:1037D000A12BDC01CB018093E9049093EA04A09330
:1037E000EB04B093EC04809199058F5F8093990569
:1037F00010929805CA3289F58091960580939505B7
:103800002CC08D3011F08A30E1F480919A050E942D
:10381000C91AC82FC295C07F80919B050E94C91A02
:103820008C0F90919505891719F580919705813036
:10383000F9F4809194058823D9F01092970581E0DE
:1038400018C0809198058F3040F4E82FF0E0E656DC
:10385000FA4FC0838F5F80939805809196058C27DF
:103860008093960582E00E94CA29009709F0E3CE72
:1038700080E0DF91CF9108954F925F926F927F9297
:103880008F929F92AF92BF92CF92DF92EF92FF9270
:103890000F931F93CF93DF93CDB7DEB7DC01CB013E
:1038A00027013801760165018401481A590A6A0A1C
:1038B0007B0AC21AD30AE40AF50ABC01CD01E6E08C
:1038C0009595879577956795EA95D1F70E94F02CA5
:1038D0009B01AC01C701B6010E94A12B4B015C0109
:1038E00066277727CB016419750986099709A50111
:1038F00094010E94F72CDC01CB01AC01BD014050CA
:103900005040664A7F4FF80140835183628373833E
:103910004130F0E05F07F4EB6F07F0E07F074CF019
:1039200080509040AE40B140F80180839183A283E3
:10393000B383C301B2010E943D2C6B017C01C50120
:10394000B4010E943D2CDC01CB018C0D9D1DAE1DF0
:10395000BF1D8134FCE99F07F0E0AF07F0E0BF072F
:10396000CCF0C301B201A30192010E94A12B6B0113
:103970007C01C501B401A50194010E94A12B6C0D2D
:103980007D1D8E1D9F1D0E94EE2E20E03CE54BEC20
:1039900056E01EC0562D452D342D2227FA2CE92C39
:1039A000D82CCC24CA01B9010E94A12B2B013C01C7
:1039B000C701B601A70196010E94A12B640D751DD8
:1039C000861D971D0E94EE2E2CE53BEC46E050E054
:1039D0000E94A12BDF91CF911F910F91FF90EF904B
:1039E000DF90CF90BF90AF909F908F907F906F901F
:1039F0005F904F9008958091DD049091DE04A09136
:103A0000DF04B091E0048093CD049093CE04A093A2
:103A1000CF04B093D0048091E1049091E204A0918E
:103A2000E304B091E4048093D1049093D204A09372
:103A3000D304B093D4048091930490919404A09102
:103A40009504B09196048093D5049093D604A093E6
:103A5000D704B093D8048091670490916804A09132
:103A60006904B0916A048093D9049093DA04A09316
:103A7000DB04B093DC0408958F929F92AF92BF92C3
:103A8000CF92DF92EF92FF920F931F937B018C01F5
:103A900059016A016093D9057093DA058093DB05BB
:103AA0009093DC052093D5053093D6054093D70538
:103AB0005093D8051092CD051092CE051092CF05E7
:103AC0001092D0051092C5051092C6051092C70538
:103AD0001092C8051092C1051092C2051092C3053C
:103AE0001092C4051092BD051092BE051092BF053C
:103AF0001092C0051092B9051092BA051092BB053C
:103B00001092BC056091DD047091DE048091DF04A9
:103B10009091E0042091E1043091E2044091E304AB
:103B20005091E404F1ED8F2EF5E09F2E0E943C1C95
:103B3000DC01CB018093C9059093CA05A093CB0506
:103B4000B093CC051092B5051092B6051092B7054A
:103B50001092B8051092A9051092AA051092AB0513
:103B60001092AC051092AD051092AE051092AF0503
:103B70001092B0058091930490919404A0919504C3
:103B8000B09196048093B1059093B205A093B305CC
:103B9000B093B4051F910F91FF90EF90DF90CF90FD
:103BA000BF90AF909F908F9008952F923F924F9229
:103BB0005F926F927F928F929F92AF92BF92CF92BD
:103BC000DF92EF92FF920F931F93CF93DF93CDB7C6
:103BD000DEB72C970FB6F894DEBF0FBECDBF1B012A
:103BE0004091B5055091B6056091B7057091B80543
:103BF00000914B0410914C0420914D0430914E04DF
:103C0000400F511F621F731F4093B5055093B605B7
:103C10006093B7057093B805882309F455C2452F02
:103C2000562F672F772767FD7A954093B5055093F8
:103C3000B6056093B7057093B8056091DD04709187
:103C4000DE048091DF049091E0042091E104309142
:103C5000E2044091E3045091E404E090D905F0902F
:103C6000DA050091DB051091DC05A090D505B09038
:103C7000D605C090D705D090D805B1EF8B2EB4E013
:103C80009B2E0E943C1C4B015C016093ED047093E1
:103C9000EE048093EF049093F004C090F104D09070
:103CA000F204E090F304F090F4048091D105909137
:103CB000D205A091D305B091D405C81AD90AEA0A51
:103CC000FB0AC701B6010E944F2C9B01AC01C50144
:103CD000B4010E94A12B2B013C018090ED04909037
:103CE000EE04A090EF04B090F004C701B6010E946A
:103CF000F02C9B01AC01C501B4010E94A12B698786
:103D00007A878B879C87C090C505D090C605E090C8
:103D1000C705F090C8052091B5053091B6054091D2
:103D2000B7055091B805C301B2010E94A12BDC0177
:103D3000CB018C0D9D1DAE1DBF1D8093C5059093BD
:103D4000C605A093C705B093C805C090C105D09023
:103D5000C205E090C305F090C4052091B5053091EF
:103D6000B6054091B7055091B80569857A858B8570
:103D70009C850E94A12BDC01CB018C0D9D1DAE1DED
:103D8000BF1D8093C1059093C205A093C305B09356
:103D9000C40585EC95E040E050E068E17CEF00E090
:103DA00010E028EE33E00E94582B81EC95E040E0D3
:103DB00050E068E17CEF00E010E028EE33E00E9484
:103DC000582B6091B5057091B6058091B70590911B
:103DD000B80520E030E041E050E00E94A12BDC017A
:103DE000CB01C090CD05D090CE05E090CF05F090EE
:103DF000D005C418D508E608F708812C912CE1E01D
:103E0000AE2EB12C881A990AAA0ABB0A2091BD05C8
:103E10003091BE054091BF055091C005C501B40168
:103E20000E94A12BDC01CB018C0D9D1DAE1DBF1D81
:103E30008093BD059093BE05A093BF05B093C005C8
:103E4000C090C905D090CA05E090CB05F090CC0594
:103E500089859A85AB85BC85C81AD90AEA0AFB0A06
:103E60002091B9053091BA054091BB055091BC0530
:103E7000C501B4010E94A12BDC01CB018C0D9D1D5D
:103E8000AE1DBF1D8093B9059093BA05A093BB05E5
:103E9000B093BC054092CD055092CE056092CF05FF
:103EA0007092D00589859A85AB85BC858093C905BC
:103EB0009093CA05A093CB05B093CC056091840381
:103EC000709185038091860390918703A3019201ED
:103ED0000E94A12B6B017C016091AC037091AD033A
:103EE0008091AE039091AF032091C5053091C60536
:103EF0004091C7055091C8050E94A12BDC01CB0160
:103F0000C80ED91EEA1EFB1E6091D4037091D50322
:103F10008091D6039091D7032091BD053091BE05C5
:103F20004091BF055091C0050E94A12BDC01CB013F
:103F3000C81AD90AEA0AFB0ACD82DE82EF82F88625
:103F4000609184037091850380918603909187032B
:103F500029853A854B855C850E94A12B6B017C01EC
:103F60006091AC037091AD038091AE039091AF036B
:103F70002091C1053091C2054091C3055091C405FF
:103F80000E94A12BDC01CB01C80ED91EEA1EFB1E2C
:103F90006091D4037091D5038091D6039091D7039B
:103FA0002091B9053091BA054091BB055091BC05EF
:103FB0000E94A12BDC01CB01C81AD90AEA0AFB0A2C
:103FC000C982DA82EB82FC82CE01059640E050E0A5
:103FD00061EF7FEF00E010E02FE030E00E94582B0F
:103FE000CE01019640E050E061EF7FEF00E010E08D
:103FF0002FE030E00E94582BC0909304D09094049E
:10400000E0909504F09096048091D1059091D205AE
:10401000A091D305B091D405C81AD90AEA0AFB0ABF
:10402000C701B6010E944F2C4B015C01C701B601CC
:104030000E94F02C2B013C016D817E818F8198853F
:10404000A30192010E94A12B6B017C0169817A81FD
:104050008B819C81A50194010E94A12BDC01CB01E5
:10406000C81AD90AEA0AFB0AC092A905D092AA0581
:10407000E092AB05F092AC056D817E818F819885D1
:10408000A50194010E94A12B6B017C0169817A81B9
:104090008B819C81A30192010E94A12BDC01CB01A9
:1040A0008C0D9D1DAE1DBF1D8093AD059093AE057B
:1040B000A093AF05B093B0051092B5051092B60568
:1040C0001092B7051092B8058091A9059091AA05A4
:1040D000A091AB05B091AC0540918B0450918C043C
:1040E00060918D0470918E04841B950BA60BB70B09
:1040F000F10180839183A283B3838091AD05909178
:10410000AE05A091AF05B091B00540918F045091DC
:1041100090046091910470919204841B950BA60BFE
:10412000B70B84839583A683B7838091B105909163
:10413000B205A091B305B091B4054091930450919C
:1041400094046091950470919604841B950BA60BC2
:10415000B70B80879187A287B3878101085F1F4FC4
:10416000C8010E94752BC80140E050E06BEF7FEF63
:1041700000E010E025E030E00E94582B2C960FB6AE
:10418000F894DEBF0FBECDBFDF91CF911F910F918D
:10419000FF90EF90DF90CF90BF90AF909F908F9067
:1041A0007F906F905F904F903F902F900895AF92C7
:1041B000BF92CF92DF92EF92FF920F931F93CF9314
:1041C000DF93EC018B015A016C817D818E819F818F
:1041D000F80120853185428553850E94A12B6B0112
:1041E0007C01688579858A859B85F80124813581E4
:1041F000468157810E94A12BDC01CB01C81AD90A44
:10420000EA0AFB0AF501C082D182E282F382688564
:1042100079858A859B85F80120813181428153818E
:104220000E94A12B6B017C01688179818A819B812D
:10423000F80120853185428553850E94A12BDC0140
:10424000CB01C81AD90AEA0AFB0AF501C482D58251
:10425000E682F782688179818A819B81F8012481D5
:104260003581468157810E94A12B6B017C016C81B5
:104270007D818E819F81F80120813181428153812E
:104280000E94A12BDC01CB01C81AD90AEA0AFB0A59
:10429000F501C086D186E286F386DF91CF911F912A
:1042A0000F91FF90EF90DF90CF90BF90AF90089567
:1042B0008F929F92AF92BF92CF92DF92EF92FF9236
:1042C000CF93DF93EC01288139814A815B81CA0158
:1042D000B9010E94A12B6B017C012C813D814E8193
:1042E0005F81CA01B9010E94A12BDC01CB01C80E7C
:1042F000D91EEA1EFB1E288539854A855B85CA01C1
:10430000B9010E94A12BDC01CB01C80ED91EEA1E07
:10431000FB1E8AE0C816D104E104F1048CF480E0AD
:1043200090E0A1E0B0E088839983AA83BB831886DC
:1043300019861A861B861C821D821E821F8230C02F
:10434000C701B6010E94612E4B015C016881798131
:104350008A819B81A50194010E94A12BDC01CB01E4
:1043600088839983AA83BB836C817D818E819F81A1
:10437000A50194010E94A12BDC01CB018C839D83BC
:10438000AE83BF83688579858A859B85A501940165
:104390000E94A12BDC01CB0188879987AA87BB8764
:1043A000B601C701DF91CF91FF90EF90DF90CF90E2
:1043B000BF90AF909F908F900895CF92DF92EF9231
:1043C000FF920F931F93CF93DF93EC018B016881D2
:1043D00079818A819B81F8012081318142815381D9
:1043E0000E94A12B6B017C016C817D818E819F815C
:1043F000F80124813581468157810E94A12BDC017F
:10440000CB01C80ED91EEA1EFB1E688579858A85F8
:104410009B85F80120853185428553850E94A12B1B
:104420008B019C010C0D1D1D2E1D3F1DB801C901E6
:10443000DF91CF911F910F91FF90EF90DF90CF9080
:1044400008952F923F924F925F926F927F928F9238
:104450009F92AF92BF92CF92DF92EF92FF920F9313
:104460001F93CF93DF93CDB7DEB764970FB6F89461
:10447000DEBF0FBECDBF1C0149875A876B877C8783
:104480000D871E872F87388B26013701DC018D9021
:104490009D90AD90BC90139714962D913D914D91A8
:1044A0005C91179729833A834B835C8318962D91EF
:1044B0003D914D915C911B972D833E834F8358878F
:1044C00069857A858B859C850E94A12B6B017C0177
:1044D000C301B20129813A814B815C810E94A12BE9
:1044E000DC01CB01C81AD90AEA0AFB0ACD2CDE2C62
:1044F000EF2CFF24E7FCFA94C80CD91CEA1CFB1C27
:10450000F101C082D182E282F38224813581468129
:104510005781298B3A8B4B8B5C8B6D857E858F8584
:1045200098892D813E814F8158850E94A12B6B0176
:104530007C01C301B201A50194010E94A12BDC0101
:10454000CB018C0D9D1DAE1DBF1D892F9A2FAB2F4A
:10455000BB27A7FDBA9529893A894B895C89820FC7
:10456000931FA41FB51FF10184839583A683B7838E
:10457000408451846284738469857A858B859C85A7
:10458000A50194010E94A12B6B017C016D857E85A4
:104590008F85988929813A814B815C810E94A12B6A
:1045A000DC01CB018C0D9D1DAE1DBF1D892F9A2FE7
:1045B000AB2FBB27A7FDBA95481A590A6A0A7B0A8E
:1045C000D10118964D925D926D927C921B976496E4
:1045D0000FB6F894DEBF0FBECDBFDF91CF911F9114
:1045E0000F91FF90EF90DF90CF90BF90AF909F9092
:1045F0008F907F906F905F904F903F902F90089595
:10460000109299001092980010929B0010929A00BC
:1046100080FF05C05091900051605093900081FF41
:1046200005C05091900052605093900082FF05C0E9
:104630005091910058605093910083FF05C0809184
:10464000910080618093910080919100842B8093F0
:10465000910080919000862B80939000309397007A
:104660002093960008959093990080939800089560
:1046700090939B0080939A00089590939D0080935F
:104680009C0008951092A9001092A8001092AB000F
:104690001092AA0080FF05C05091A0005160509375
:1046A000A00081FF05C05091A00052605093A0006F
:1046B00082FF05C05091A10058605093A10083FF74
:1046C00005C08091A10080618093A1008091A0002D
:1046D000862B8093A0008091A100842B8093A10061
:1046E0003093A7002093A60008959093A90080938B
:1046F000A80008959093AB008093AA00089590932A
:10470000AD008093AC000895982F907F8F7090310A
:1047100099F570E0AB014270507060FF19C041150F
:10472000510559F495B121E030E0082E02C0220F66
:10473000331F0A94E2F7922B95B994B121E030E04F
:1047400002C0220F331F8A95E2F7922B94B9089585
:1047500094B121E030E002C0220F331F8A95E2F7C6
:10476000822F8095892384B94115510509F0E6C04F
:1047700085B1822B85B90895903299F570E0AB012F
:104780004270507060FF19C04115510559F498B13D
:1047900021E030E0082E02C0220F331F0A94E2F716
:1047A000922B98B997B121E030E002C0220F331F5D
:1047B0008A95E2F7922B97B9089597B121E030E0FE
:1047C00002C0220F331F8A95E2F7822F809589233A
:1047D00087B94115510509F0B1C088B1822B88B95C
:1047E0000895903499F570E0AB014270507060FF0D
:1047F00019C04115510559F49EB121E030E0082E51
:1048000002C0220F331F0A94E2F7922B9EB99DB18A
:1048100021E030E002C0220F331F8A95E2F7922B8D
:104820009DB908959DB121E030E002C0220F331FF1
:104830008A95E2F7822F809589238DB9411551051C
:1048400009F07CC08EB1822B8EB908959037D9F5CE
:1048500070E0AB014270507060FF1DC04115510502
:1048600069F49091020121E030E0082E02C0220F8D
:10487000331F0A94E2F7922B909302019091010169
:1048800021E030E002C0220F331F8A95E2F7922B1D
:104890009093010108959091010121E030E002C060
:1048A000220F331F8A95E2F7822F80958923809308
:1048B00001014115510509F041C080910201822B8F
:1048C000809302010895903AC9F570E0AB014270FF
:1048D000507060FF1DC04115510569F490910801A9
:1048E00021E030E0082E02C0220F331F0A94E2F7C5
:1048F000922B909308019091070121E030E002C0D3
:10490000220F331F8A95E2F7922B909307010895A7
:104910009091070121E030E002C0220F331F8A95F9
:10492000E2F7822F80958923809307014115510575
:1049300029F480910801822B809308010895982F13
:10494000907F8F70903111F423B111C0903211F427
:1049500026B10DC0903411F42CB109C0903719F470
:104960002091000104C0903A69F42091060130E0E2
:1049700002C0359527958A95E2F781E020FF02C0B5
:1049800080E008950895982F907F8F70903189F47A
:1049900095B121E030E002C0220F331F8A95E2F783
:1049A000662319F4922B95B908952095292325B9EA
:1049B0000895903289F498B121E030E002C0220FCE
:1049C000331F8A95E2F7662319F4922B98B908955C
:1049D0002095292328B90895903489F49EB121E0C7
:1049E00030E002C0220F331F8A95E2F7662319F4E4
:1049F000922B9EB90895209529232EB908959037BA
:104A0000A1F49091020121E030E002C0220F331F97
:104A10008A95E2F7662321F4922B90930201089580
:104A200020952923209302010895903A99F49091BA
:104A3000080121E030E002C0220F331F8A95E2F71F
:104A4000662321F4922B9093080108952095292341
:104A50002093080108951F920F920FB60F920BB684
:104A60000F9211242F933F934F935F936F937F93F4
:104A70008F939F93AF93BF93CF93DF93EF93FF9366
:104A8000C0910601D091DD05DC27C093DD05789447
:104A9000D0FF0BC0E091E805F091E905309729F0CF
:104AA0006C2F6095617080E01995D1FF0BC0E0918B
:104AB000E605F091E705309729F061E0C1FD60E07F
:104AC00080E01995D2FF0BC0E091E405F091E50577
:104AD000309729F061E0C2FD60E080E01995D3FFD6
:104AE0000BC0E091E205F091E305309729F061E019
:104AF000C3FD60E080E01995D4FF0BC0E091E005B4
:104B0000F091E105309729F061E0C4FD60E080E0BC
:104B10001995D5FF0BC0E091DE05F091DF053097C8
:104B200029F061E0C5FD60E080E01995FF91EF910B
:104B3000DF91CF91BF91AF919F918F917F916F91B5
:104B40005F914F913F912F910F900BBE0F900FBE31
:104B50000F901F901895803A31F47093E905609397
:104B6000E80520E128C0813A31F47093E7056093AD
:104B7000E60521E120C0823A31F47093E5056093A7
:104B8000E40522E118C0833A31F47093E3056093A1
:104B9000E20523E110C0843A31F47093E10560939B
:104BA000E00524E108C020E1853A29F47093DF058F
:104BB0006093DE0525E1809106018093DD058091FB
:104BC000680084608093680040916D0030E020515F
:104BD000304081E090E002C0880F991F2A95E2F7EB
:104BE000482B40936D0078940895E1E8F0E08081CF
:104BF00082608083EFE6F0E080818160808378943A
:104C000008951F920F920FB60F9211248F939F93C6
:104C1000AF93BF938091EA059091EB05A091EC05CD
:104C2000B091ED050196A11DB11D8093EA05909309
:104C3000EB05A093EC05B093ED05BF91AF919F916B
:104C40008F910F900FBE0F901F9018950F931F9389
:104C5000F89480918400909185000091EA0510916C
:104C6000EB052091EC053091ED0578949801112722
:104C70000027A0E0B0E0080F191F2A1F3B1F359541
:104C8000279517950795B801C9011F910F910895B0
:104C9000CF92DF92EF92FF926B017C010E94262659
:104CA000DC01CB018C159D05AE05BF0548F4C09411
:104CB000D094E094F094C80ED91EEA1EFB1E08C0E2
:104CC0009C01AD012C193D094E095F0969017A016A
:104CD000B601C701FF90EF90DF90CF9008950F933A
:104CE0001F93CF93DF93EC010E942626DC01CB01BA
:104CF000088119812A813B8180179107A207B30798
:104D000048F40095109520953095080F191F2A1F1B
:104D10003B1F08C0AC01BD01401B510B620B730B64
:104D20008A019B0188839983AA83BB83B801C90147
:104D3000DF91CF911F910F9108950E94262608952B
:104D40008F929F92AF92BF92CF92DF92EF92FF929B
:104D50006B017C010E9426264B015C01C701B60154
:104D600028EE33E040E050E00E94DC336B017C0130
:104D7000C501B4010E944826DC01CB018C159D05BC
:104D8000AE05BF05A8F3FF90EF90DF90CF90BF90E6
:104D9000AF909F908F9008951092B900882321F4CE
:104DA00088E48093B8000895813019F48CE08093F2
:104DB000B800089580E00E94CC26089594EA90936C
:104DC000BC009091BC0097FFFCCF9091B900987FF8
:104DD000983011F0903181F48093BB0084E8809387
:104DE000BC008091BC0087FFFCCF8091B900887F18
:104DF000883121F082E0089581E0089580E00895EF
:104E000029EE33E064EA54E844E92150304019F1D6
:104E10006093BC009091BC0097FFFCCF9091B900CB
:104E2000987F983011F0903181F78093BB005093B8
:104E3000BC009091BC0097FFFCCF9091B900987F87
:104E4000903211F0983549F44093BC009091BC0029
:104E500094FDFCCFDACF81E0089580E008950E94B0
:104E6000DE26089584E98093BC008091BC0084FD17
:104E7000FCCF08958093BB0084E88093BC008091B0
:104E8000BC0087FFFCCF9091B900987F81E09832F9
:104E900009F480E0089584EC8093BC008091BC000C
:104EA00087FFFCCF8091BB00089584E88093BC000D
:104EB0008091BC0087FFFCCF8091BB000895CF9309
:104EC000DF930F920F92CDB7DEB7880F4A836983C5
:104ED0000E9400276981862F0E943A274A81842FE9
:104EE0000E943A270E9432270F900F90DF91CF91B6
:104EF00008951F93CF93DF930F92CDB7DEB7182F8E
:104F0000110F812F69830E9400276981862F0E94DB
:104F10003A27812F8F5F0E94DE260E9455278983C2
:104F20000E94322789810F90DF91CF911F910895C0
:104F3000CF92DF92EF92FF920F931F93CF93DF9365
:104F40000F92CDB7DEB78A01E22EF82EFF0C8F2D1F
:104F500069830E9400276981862F0E943A278F2D3E
:104F60008F5F0E94DE26FE2C680105C00E944B2741
:104F7000F60181936F01FA94C9F7EA940E0D111DA1
:104F80000E945527F80180830E9432270F90DF91FD
:104F9000CF911F910F91FF90EF90DF90CF900895E8
:104FA000E82FF0E0EE0FFF1FE251FA4F71836083AC
:104FB00008950F931F93CF93C82F9A01AB0160E020
:104FC00079E08DE390E00E94303489019A0101502C
:104FD000104020403040C901B80122E030E040E0FC
:104FE00050E00E94303489019A018C2F90E0880FA4
:104FF000991FFC01EA5EF94F11821082FC01E25E0A
:10500000F94F11821082FC01EA50FA4F118210828E
:1050100082509A4FFC0111821082CC2399F58FE7C0
:1050200098E090932F0680932E0688EC90E0909362
:105030002706809326068FE398E090930F068093CF
:105040000E0680E490E0909307068093060682E0C7
:105050008093C0008091C10088618093C1008091DD
:10506000C20086608093C2000093C400012F122FFB
:10507000232F33270093C5008091C100806880935F
:10508000C10068C0C23091F58EE398E0909333067A
:105090008093320681E090E090932B0680932A065D
:1050A0008EE397E0909313068093120680E091E0E0
:1050B00090930B0680930A06C093D0008091D10094
:1050C00088618093D1008091D20086608093D20065
:1050D0000093D400012F122F232F33270093D500E4
:1050E0008091D10080688093D10034C0C33091F5A5
:1050F00086E796E0909335068093340688EC90E03E
:1051000090932D0680932C0686E396E090931506E7
:105110008093140680E490E090930D0680930C0633
:1051200082E0809330018091310188618093310168
:105130008091320186608093320100933401012F07
:10514000122F232F3327009335018091310180687E
:10515000809331017894CF911F910F910895882306
:10516000C9F520911E0630911F0680911606909178
:1051700017062817390731F48091C1008F7D80937D
:10518000C100089580911E0690911F06E0912E06A1
:10519000F0912F06E80FF91F20812093C600019699
:1051A00090931F0680931E068091C10080628093B9
:1051B000C10020911E0630911F0680912606909115
:1051C00027062817390709F078C010921F06109299
:1051D0001E0608958230C1F52091220630912306E3
:1051E00080911A0690911B062817390731F4809197
:1051F000D1008F7D8093D1000895809122069091F7
:105200002306E0913206F0913306E80FF91F208162
:105210002093D600019690932306809322068091D6
:10522000D10080628093D100209122063091230624
:1052300080912A0690912B0628173907F1F51092D4
:1052400023061092220608958330B9F52091240692
:105250003091250680911C0690911D06281739076C
:1052600031F4809131018F7D8093310108958091D7
:10527000240690912506E0913406F0913506E80F5A
:10528000F91F208120933601019690932506809383
:10529000240680913101806280933101209124069F
:1052A0003091250680912C0690912D0628173907FC
:1052B00021F4109225061092240608957894282F40
:1052C00030E0220F331FD901AA5EB94F4D915C9196
:1052D0001197F901E25DF94F0190F081E02DE40FA3
:1052E000F51F60834F5F5F4F11965C934E934D9116
:1052F0005C9111972A5D394FF90120813181421764
:10530000530719F411961C921E92882331F4809150
:10531000C10085FD15C080E007C0823041F4809156
:10532000D10085FD0DC082E00E94AF280895833032
:1053300039F48091310185FD03C083E00E94AF28DC
:1053400008951F93CF93DF93182FEB0103C0812F94
:105350000E945E2969916623D1F7DF91CF911F9159
:105360000895FF920F931F93CF93DF93F82E8B0135
:10537000EA0107C0F80161918F018F2D0E945E291B
:1053800021971C161D06B4F3DF91CF911F910F9149
:10539000FF90089590E0880F991FFC01EA50FA4FA2
:1053A00060817181FC01E250FA4F20813181AB01B3
:1053B000421B530B621773073CF48A5F994FFC0141
:1053C00080819181480F591FCA010895282F30E02C
:1053D000220F331FD901A250BA4F4D915C91119702
:1053E000F901E25FF94F0190F081E02DE40FF51F24
:1053F00080814F5F5F4F11965C934E932A5F394FC8
:10540000F901208131814217530719F411961C923A
:105410001E920895CF92DF92FF920F931F93CF9326
:10542000DF93F82E8B016A01C0E0D0E007C08F2D1A
:105430000E94E629F80181938F012196CC15DD05A4
:10544000B4F3DF91CF911F910F91FF90DF90CF9038
:105450000895282F862F789430E0220F331FF9010A
:10546000E251FA4F0190F081E02D309711F019953B
:105470000895D901AA50BA4F4D915C911197F90145
:10548000E25FF94F0190F081E02DE40FF51F60839A
:105490004F5F5F4F11965C934E938D919C91119746
:1054A0002A5F394FF901208131818217930719F45E
:1054B00011961C921E9208951F920F920FB60F9292
:1054C0000BB60F9211242F933F934F935F936F93DB
:1054D0007F938F939F93AF93BF93EF93FF9380E05E
:1054E0000E94AF28FF91EF91BF91AF919F918F9153
:1054F0007F916F915F914F913F912F910F900BBED4
:105500000F900FBE0F901F9018951F920F920FB61D
:105510000F920BB60F9211242F933F934F935F93EB
:105520006F937F938F939F93AF93BF93EF93FF936B
:105530006091C60080E00E94292AFF91EF91BF91FF
:10554000AF919F918F917F916F915F914F913F911B
:105550002F910F900BBE0F900FBE0F901F901895BC
:105560001F920F920FB60F920BB60F9211242F932A
:105570003F934F935F936F937F938F939F93AF93DB
:10558000BF93EF93FF9382E00E94AF28FF91EF91CA
:10559000BF91AF919F918F917F916F915F914F914B
:1055A0003F912F910F900BBE0F900FBE0F901F9049
:1055B00018951F920F920FB60F920BB60F921124EF
:1055C0002F933F934F935F936F937F938F939F930B
:1055D000AF93BF93EF93FF936091D60082E00E9458
:1055E000292AFF91EF91BF91AF919F918F917F9168
:1055F0006F915F914F913F912F910F900BBE0F9044
:105600000FBE0F901F9018951F920F920FB60F921A
:105610000BB60F9211242F933F934F935F936F9389
:105620007F938F939F93AF93BF93EF93FF9383E009
:105630000E94AF28FF91EF91BF91AF919F918F9101
:105640007F916F915F914F913F912F910F900BBE82
:105650000F900FBE0F901F9018951F920F920FB6CC
:105660000F920BB60F9211242F933F934F935F939A
:105670006F937F938F939F93AF93BF93EF93FF931A
:105680006091360183E00E94292AFF91EF91BF913A
:10569000AF919F918F917F916F915F914F913F91CA
:1056A0002F910F900BBE0F900FBE0F901F9018956B
:1056B0000F931F93FC0180819181A281B381841794
:1056C0009507A607B7072CF4408351836283738341
:1056D00009C0081719072A073B0724F40083118320
:1056E000228333831F910F910895FC0108C08050DD
:1056F0009040A849BE4F80839183A283B383808169
:105700009181A281B381803020E092072CE4A2072E
:105710002FEFB20764F308C0405050406846714014
:10572000408351836283738340815181628173819D
:10573000413080E0580784EB680780E0780764F721
:105740000895CF92DF92EF92FF920F93AA27082F2E
:10575000209F6001409F7001309FD00CE11CFA1E19
:105760005003F00C062F309FC10CDA1EEA1EFA1E01
:10577000409FC00CD11CEA1EFA1E5003FA0AD00C3E
:10578000E11CFA1E072F209FC10CDA1EEA1EFA1E2A
:10579000309FC00CD11CEA1EFA1E409FD00CE11CA9
:1057A000FA1E5003E00CF11C092F0203FA0AD00C78
:1057B000E11CFA1E0303E00CF11C0403F00C11249D
:1057C000B601C7010F91FF90EF90DF90CF90089541
:1057D0004F925F926F927F92AF92CF92DF92EF9251
:1057E000FF920F931F93CF93DF93EC012A013B01AC
:1057F000C901B801A70196010E94A12B6B017C0190
:10580000A30192010E94A12B2B013C0180E090E0BA
:10581000A1E0B0E00A2C04C0880F991FAA1FBB1F8B
:105820000A94D2F78C199D09AE09BF0928813981E4
:105830004A815B81BC01CD010E94A12BDC01CB011F
:10584000840D951DA61DB71D04C0B595A795979508
:105850008795AA94D2F788839983AA83BB83DF9123
:10586000CF911F910F91FF90EF90DF90CF90AF906D
:105870007F906F905F904F9008950F931F938B01CF
:105880009C0137FF07C030952095109501951F4F5B
:105890002F4F3F4FB801C9011F910F910895AF924B
:1058A000BF92CF92DF92EF92FF920F931F93CF930D
:1058B000DC01CB0104C080509040A846B14081304B
:1058C00000E0900704EBA00700E0B007A4F704C0D5
:1058D00080509040A849BE4F803010E091071CE4F2
:1058E000A1071FEFB107A4F3B7FF09C0B095A095BA
:1058F000909581959F4FAF4FBF4FC1E001C0C0E071
:10590000813020E092072AE5A20720E0B20764F088
:1059100040E050E064EB70E08A019B01081B190B2A
:105920002A0B3B0BD901C8019C01AD0163E15595E0
:105930004795379527956A95D1F75901AA0CBB1C55
:10594000AA0CBB1CF501E051FD4FC080D180E28064
:10595000F380A901662757FD6095762F13E1440F68
:10596000551F661F771F1A95D1F7841B950BA60B41
:10597000B70BBC01CD012FE830E040E050E00E94C1
:10598000DC339B01AC010DE0559547953795279584
:105990000A95D1F7C701B6010E94A12B8B019C018A
:1059A000F501E05EFC4F80819181A281B381080FF7
:1059B000191F2A1F3B1FCC2339F0309520951095D5
:1059C00001951F4F2F4F3F4FB801C901CF911F9134
:1059D0000F91FF90EF90DF90CF90BF90AF90089520
:1059E00060507040864A9F4F0E944F2C08957F92CE
:1059F0008F929F92AF92BF92CF92DF92EF92FF92DF
:105A00000F931F93CF93DF936B017C01DA01C901E0
:105A1000C114D104E104F10431F457FD9DC000E04C
:105A200010E098019DC0F7FE14C0B095A095909528
:105A300081959F4FAF4FBF4FF094E094D094C094A6
:105A4000C11CD11CE11CF11C00E010E02CE43FEF74
:105A500003C000E010E09801181619061A061B068C
:105A60007CF044275527BA01481B590B6A0B7B0B66
:105A700000501040264A3F4FD701C6016A017B0102
:105A8000C816D906EA06FB0684F0B701A601481B32
:105A9000590B6A0B7B0B8C0D9D1DAE1DBF1D00505D
:105AA0001040234D3F4F6A017B01803040E0940756
:105AB00041E0A40740E0B40774F44CE0880F991F5C
:105AC000AA1FBB1F4A95D1F75CE0CC0CDD1CEE1C75
:105AD000FF1C5A95D1F7E0ECF2E0C1E0D0E04601BE
